{
  "_format": "hh-sol-artifact-1",
  "contractName": "NFTMarket",
  "sourceName": "contracts/NFTMarket.sol",
  "abi": [
    {
      "inputs": [],
      "stateMutability": "nonpayable",
      "type": "constructor"
    },
    {
      "anonymous": false,
      "inputs": [
        {
          "indexed": true,
          "internalType": "uint256",
          "name": "itemId",
          "type": "uint256"
        },
        {
          "indexed": true,
          "internalType": "address",
          "name": "nftContract",
          "type": "address"
        },
        {
          "indexed": true,
          "internalType": "uint256",
          "name": "tokenId",
          "type": "uint256"
        },
        {
          "indexed": false,
          "internalType": "address",
          "name": "seller",
          "type": "address"
        },
        {
          "indexed": false,
          "internalType": "address",
          "name": "owner",
          "type": "address"
        },
        {
          "indexed": false,
          "internalType": "uint256",
          "name": "price",
          "type": "uint256"
        },
        {
          "indexed": false,
          "internalType": "bool",
          "name": "sold",
          "type": "bool"
        }
      ],
      "name": "MarketItemCreated",
      "type": "event"
    },
    {
      "inputs": [
        {
          "internalType": "address",
          "name": "nftContract",
          "type": "address"
        },
        {
          "internalType": "uint256",
          "name": "tokenId",
          "type": "uint256"
        },
        {
          "internalType": "uint256",
          "name": "price",
          "type": "uint256"
        }
      ],
      "name": "createMarketItem",
      "outputs": [],
      "stateMutability": "payable",
      "type": "function"
    },
    {
      "inputs": [
        {
          "internalType": "address",
          "name": "nftContract",
          "type": "address"
        },
        {
          "internalType": "uint256",
          "name": "itemId",
          "type": "uint256"
        }
      ],
      "name": "createMarketSale",
      "outputs": [],
      "stateMutability": "payable",
      "type": "function"
    },
    {
      "inputs": [],
      "name": "fetchItemsListed",
      "outputs": [
        {
          "components": [
            {
              "internalType": "uint256",
              "name": "itemId",
              "type": "uint256"
            },
            {
              "internalType": "address",
              "name": "nftContract",
              "type": "address"
            },
            {
              "internalType": "uint256",
              "name": "tokenId",
              "type": "uint256"
            },
            {
              "internalType": "address payable",
              "name": "seller",
              "type": "address"
            },
            {
              "internalType": "address payable",
              "name": "owner",
              "type": "address"
            },
            {
              "internalType": "uint256",
              "name": "price",
              "type": "uint256"
            },
            {
              "internalType": "bool",
              "name": "sold",
              "type": "bool"
            }
          ],
          "internalType": "struct NFTMarket.MarketItem[]",
          "name": "",
          "type": "tuple[]"
        }
      ],
      "stateMutability": "view",
      "type": "function"
    },
    {
      "inputs": [],
      "name": "fetchMarketItems",
      "outputs": [
        {
          "components": [
            {
              "internalType": "uint256",
              "name": "itemId",
              "type": "uint256"
            },
            {
              "internalType": "address",
              "name": "nftContract",
              "type": "address"
            },
            {
              "internalType": "uint256",
              "name": "tokenId",
              "type": "uint256"
            },
            {
              "internalType": "address payable",
              "name": "seller",
              "type": "address"
            },
            {
              "internalType": "address payable",
              "name": "owner",
              "type": "address"
            },
            {
              "internalType": "uint256",
              "name": "price",
              "type": "uint256"
            },
            {
              "internalType": "bool",
              "name": "sold",
              "type": "bool"
            }
          ],
          "internalType": "struct NFTMarket.MarketItem[]",
          "name": "",
          "type": "tuple[]"
        }
      ],
      "stateMutability": "view",
      "type": "function"
    },
    {
      "inputs": [],
      "name": "fetchMyNFTs",
      "outputs": [
        {
          "components": [
            {
              "internalType": "uint256",
              "name": "itemId",
              "type": "uint256"
            },
            {
              "internalType": "address",
              "name": "nftContract",
              "type": "address"
            },
            {
              "internalType": "uint256",
              "name": "tokenId",
              "type": "uint256"
            },
            {
              "internalType": "address payable",
              "name": "seller",
              "type": "address"
            },
            {
              "internalType": "address payable",
              "name": "owner",
              "type": "address"
            },
            {
              "internalType": "uint256",
              "name": "price",
              "type": "uint256"
            },
            {
              "internalType": "bool",
              "name": "sold",
              "type": "bool"
            }
          ],
          "internalType": "struct NFTMarket.MarketItem[]",
          "name": "",
          "type": "tuple[]"
        }
      ],
      "stateMutability": "view",
      "type": "function"
    },
    {
      "inputs": [],
      "name": "getListingPrice",
      "outputs": [
        {
          "internalType": "uint256",
          "name": "",
          "type": "uint256"
        }
      ],
      "stateMutability": "view",
      "type": "function"
    }
  ],
  "bytecode": "0x60806040526658d15e1762800060045534801561001b57600080fd5b50600160008190555033600360006101000a81548173ffffffffffffffffffffffffffffffffffffffff021916908373ffffffffffffffffffffffffffffffffffffffff16021790555061186b806100746000396000f3fe6080604052600436106100555760003560e01c80630f08efe01461005a57806312e8558514610085578063202e3740146100b057806345f8fa80146100db57806358eb2df514610106578063c23b139e14610122575b600080fd5b34801561006657600080fd5b5061006f61013e565b60405161007c9190611315565b60405180910390f35b34801561009157600080fd5b5061009a61041d565b6040516100a79190611346565b60405180910390f35b3480156100bc57600080fd5b506100c5610427565b6040516100d29190611315565b60405180910390f35b3480156100e757600080fd5b506100f0610767565b6040516100fd9190611315565b60405180910390f35b610120600480360381019061011b91906113be565b610ab3565b005b61013c60048036038101906101379190611411565b610dd1565b005b6060600061014c6001611044565b9050600061015a6002611044565b6101646001611044565b61016e9190611480565b90506000808267ffffffffffffffff81111561018d5761018c6114b4565b5b6040519080825280602002602001820160405280156101c657816020015b6101b36110c1565b8152602001906001900390816101ab5790505b50905060005b8481101561041257600073ffffffffffffffffffffffffffffffffffffffff16600560006001846101fd91906114e3565b815260200190815260200160002060040160009054906101000a900473ffffffffffffffffffffffffffffffffffffffff1673ffffffffffffffffffffffffffffffffffffffff16036103ff5760006005600060018461025d91906114e3565b81526020019081526020016000206000015490506000600560008381526020019081526020016000209050806040518060e0016040529081600082015481526020016001820160009054906101000a900473ffffffffffffffffffffffffffffffffffffffff1673ffffffffffffffffffffffffffffffffffffffff1673ffffffffffffffffffffffffffffffffffffffff168152602001600282015481526020016003820160009054906101000a900473ffffffffffffffffffffffffffffffffffffffff1673ffffffffffffffffffffffffffffffffffffffff1673ffffffffffffffffffffffffffffffffffffffff1681526020016004820160009054906101000a900473ffffffffffffffffffffffffffffffffffffffff1673ffffffffffffffffffffffffffffffffffffffff1673ffffffffffffffffffffffffffffffffffffffff168152602001600582015481526020016006820160009054906101000a900460ff1615151515815250508486815181106103e2576103e1611517565b5b60200260200101819052506001856103fa91906114e3565b945050505b808061040a90611546565b9150506101cc565b508094505050505090565b6000600454905090565b606060006104356001611044565b905060008060005b838110156104dd573373ffffffffffffffffffffffffffffffffffffffff166005600060018461046d91906114e3565b815260200190815260200160002060040160009054906101000a900473ffffffffffffffffffffffffffffffffffffffff1673ffffffffffffffffffffffffffffffffffffffff16036104ca576001836104c791906114e3565b92505b80806104d590611546565b91505061043d565b5060008267ffffffffffffffff8111156104fa576104f96114b4565b5b60405190808252806020026020018201604052801561053357816020015b6105206110c1565b8152602001906001900390816105185790505b50905060005b8481101561075c573373ffffffffffffffffffffffffffffffffffffffff166005600060018461056991906114e3565b815260200190815260200160002060040160009054906101000a900473ffffffffffffffffffffffffffffffffffffffff1673ffffffffffffffffffffffffffffffffffffffff160361074957600560006001836105c791906114e3565b81526020019081526020016000206040518060e0016040529081600082015481526020016001820160009054906101000a900473ffffffffffffffffffffffffffffffffffffffff1673ffffffffffffffffffffffffffffffffffffffff1673ffffffffffffffffffffffffffffffffffffffff168152602001600282015481526020016003820160009054906101000a900473ffffffffffffffffffffffffffffffffffffffff1673ffffffffffffffffffffffffffffffffffffffff1673ffffffffffffffffffffffffffffffffffffffff1681526020016004820160009054906101000a900473ffffffffffffffffffffffffffffffffffffffff1673ffffffffffffffffffffffffffffffffffffffff1673ffffffffffffffffffffffffffffffffffffffff168152602001600582015481526020016006820160009054906101000a900460ff16151515158152505082848151811061072e5761072d611517565b5b602002602001018190525060018361074691906114e3565b92505b808061075490611546565b915050610539565b508094505050505090565b606060006107756001611044565b905060008060005b8381101561081d573373ffffffffffffffffffffffffffffffffffffffff16600560006001846107ad91906114e3565b815260200190815260200160002060030160009054906101000a900473ffffffffffffffffffffffffffffffffffffffff1673ffffffffffffffffffffffffffffffffffffffff160361080a5760018361080791906114e3565b92505b808061081590611546565b91505061077d565b5060008267ffffffffffffffff81111561083a576108396114b4565b5b60405190808252806020026020018201604052801561087357816020015b6108606110c1565b8152602001906001900390816108585790505b50905060005b84811015610aa8573373ffffffffffffffffffffffffffffffffffffffff16600560006001846108a991906114e3565b815260200190815260200160002060030160009054906101000a900473ffffffffffffffffffffffffffffffffffffffff1673ffffffffffffffffffffffffffffffffffffffff1603610a9557600060018261090591906114e3565b90506000600560008381526020019081526020016000209050806040518060e0016040529081600082015481526020016001820160009054906101000a900473ffffffffffffffffffffffffffffffffffffffff1673ffffffffffffffffffffffffffffffffffffffff1673ffffffffffffffffffffffffffffffffffffffff168152602001600282015481526020016003820160009054906101000a900473ffffffffffffffffffffffffffffffffffffffff1673ffffffffffffffffffffffffffffffffffffffff1673ffffffffffffffffffffffffffffffffffffffff1681526020016004820160009054906101000a900473ffffffffffffffffffffffffffffffffffffffff1673ffffffffffffffffffffffffffffffffffffffff1673ffffffffffffffffffffffffffffffffffffffff168152602001600582015481526020016006820160009054906101000a900460ff161515151581525050848681518110610a7857610a77611517565b5b6020026020010181905250600185610a9091906114e3565b945050505b8080610aa090611546565b915050610879565b508094505050505090565b610abb611052565b60008111610afe576040517f08c379a0000000000000000000000000000000000000000000000000000000008152600401610af5906115eb565b60405180910390fd5b6004543414610b42576040517f08c379a0000000000000000000000000000000000000000000000000000000008152600401610b399061167d565b60405180910390fd5b610b4c60016110a1565b6000610b586001611044565b90506040518060e001604052808281526020018573ffffffffffffffffffffffffffffffffffffffff1681526020018481526020013373ffffffffffffffffffffffffffffffffffffffff168152602001600073ffffffffffffffffffffffffffffffffffffffff16815260200183815260200160001515815250600560008381526020019081526020016000206000820151816000015560208201518160010160006101000a81548173ffffffffffffffffffffffffffffffffffffffff021916908373ffffffffffffffffffffffffffffffffffffffff1602179055506040820151816002015560608201518160030160006101000a81548173ffffffffffffffffffffffffffffffffffffffff021916908373ffffffffffffffffffffffffffffffffffffffff16021790555060808201518160040160006101000a81548173ffffffffffffffffffffffffffffffffffffffff021916908373ffffffffffffffffffffffffffffffffffffffff16021790555060a0820151816005015560c08201518160060160006101000a81548160ff0219169083151502179055509050508373ffffffffffffffffffffffffffffffffffffffff166323b872dd3330866040518463ffffffff1660e01b8152600401610d39939291906116ac565b600060405180830381600087803b158015610d5357600080fd5b505af1158015610d67573d6000803e3d6000fd5b50505050828473ffffffffffffffffffffffffffffffffffffffff16827f045dfa01dcba2b36aba1d3dc4a874f4b0c5d2fbeb8d2c4b34a7d88c8d8f929d1336000876000604051610dbb94939291906116f2565b60405180910390a450610dcc6110b7565b505050565b610dd9611052565b600060056000838152602001908152602001600020600501549050600060056000848152602001908152602001600020600201549050813414610e51576040517f08c379a0000000000000000000000000000000000000000000000000000000008152600401610e48906117a9565b60405180910390fd5b6005600084815260200190815260200160002060030160009054906101000a900473ffffffffffffffffffffffffffffffffffffffff1673ffffffffffffffffffffffffffffffffffffffff166108fc349081150290604051600060405180830381858888f19350505050158015610ecd573d6000803e3d6000fd5b508373ffffffffffffffffffffffffffffffffffffffff166323b872dd3033846040518463ffffffff1660e01b8152600401610f0b939291906116ac565b600060405180830381600087803b158015610f2557600080fd5b505af1158015610f39573d6000803e3d6000fd5b50505050336005600085815260200190815260200160002060040160006101000a81548173ffffffffffffffffffffffffffffffffffffffff021916908373ffffffffffffffffffffffffffffffffffffffff16021790555060016005600085815260200190815260200160002060060160006101000a81548160ff021916908315150217905550610fcb60026110a1565b600360009054906101000a900473ffffffffffffffffffffffffffffffffffffffff1673ffffffffffffffffffffffffffffffffffffffff166108fc6004549081150290604051600060405180830381858888f19350505050158015611035573d6000803e3d6000fd5b5050506110406110b7565b5050565b600081600001549050919050565b600260005403611097576040517f08c379a000000000000000000000000000000000000000000000000000000000815260040161108e90611815565b60405180910390fd5b6002600081905550565b6001816000016000828254019250508190555050565b6001600081905550565b6040518060e0016040528060008152602001600073ffffffffffffffffffffffffffffffffffffffff16815260200160008152602001600073ffffffffffffffffffffffffffffffffffffffff168152602001600073ffffffffffffffffffffffffffffffffffffffff168152602001600081526020016000151581525090565b600081519050919050565b600082825260208201905092915050565b6000819050602082019050919050565b6000819050919050565b6111818161116e565b82525050565b600073ffffffffffffffffffffffffffffffffffffffff82169050919050565b60006111b282611187565b9050919050565b6111c2816111a7565b82525050565b60006111d382611187565b9050919050565b6111e3816111c8565b82525050565b60008115159050919050565b6111fe816111e9565b82525050565b60e08201600082015161121a6000850182611178565b50602082015161122d60208501826111b9565b5060408201516112406040850182611178565b50606082015161125360608501826111da565b50608082015161126660808501826111da565b5060a082015161127960a0850182611178565b5060c082015161128c60c08501826111f5565b50505050565b600061129e8383611204565b60e08301905092915050565b6000602082019050919050565b60006112c282611142565b6112cc818561114d565b93506112d78361115e565b8060005b838110156113085781516112ef8882611292565b97506112fa836112aa565b9250506001810190506112db565b5085935050505092915050565b6000602082019050818103600083015261132f81846112b7565b905092915050565b6113408161116e565b82525050565b600060208201905061135b6000830184611337565b92915050565b600080fd5b61136f816111a7565b811461137a57600080fd5b50565b60008135905061138c81611366565b92915050565b61139b8161116e565b81146113a657600080fd5b50565b6000813590506113b881611392565b92915050565b6000806000606084860312156113d7576113d6611361565b5b60006113e58682870161137d565b93505060206113f6868287016113a9565b9250506040611407868287016113a9565b9150509250925092565b6000806040838503121561142857611427611361565b5b60006114368582860161137d565b9250506020611447858286016113a9565b9150509250929050565b7f4e487b7100000000000000000000000000000000000000000000000000000000600052601160045260246000fd5b600061148b8261116e565b91506114968361116e565b92508282039050818111156114ae576114ad611451565b5b92915050565b7f4e487b7100000000000000000000000000000000000000000000000000000000600052604160045260246000fd5b60006114ee8261116e565b91506114f98361116e565b925082820190508082111561151157611510611451565b5b92915050565b7f4e487b7100000000000000000000000000000000000000000000000000000000600052603260045260246000fd5b60006115518261116e565b91507fffffffffffffffffffffffffffffffffffffffffffffffffffffffffffffffff820361158357611582611451565b5b600182019050919050565b600082825260208201905092915050565b7f5072696365206d7573742062652061746c656173742031207765690000000000600082015250565b60006115d5601b8361158e565b91506115e08261159f565b602082019050919050565b60006020820190508181036000830152611604816115c8565b9050919050565b7f5072696365206d75737420626520657175616c20746f20746865206c6973746960008201527f6e67207072696365000000000000000000000000000000000000000000000000602082015250565b600061166760288361158e565b91506116728261160b565b604082019050919050565b600060208201905081810360008301526116968161165a565b9050919050565b6116a6816111a7565b82525050565b60006060820190506116c1600083018661169d565b6116ce602083018561169d565b6116db6040830184611337565b949350505050565b6116ec816111e9565b82525050565b6000608082019050611707600083018761169d565b611714602083018661169d565b6117216040830185611337565b61172e60608301846116e3565b95945050505050565b7f506c65617365207375626d6974207468652061736b696e67207072696365206960008201527f6e206f7264657220746f20707572636861736500000000000000000000000000602082015250565b600061179360338361158e565b915061179e82611737565b604082019050919050565b600060208201905081810360008301526117c281611786565b9050919050565b7f5265656e7472616e637947756172643a207265656e7472616e742063616c6c00600082015250565b60006117ff601f8361158e565b915061180a826117c9565b602082019050919050565b6000602082019050818103600083015261182e816117f2565b905091905056fea2646970667358221220fb9f0cb3c92260a5c68c4f08f1ea8fddbb161e4d8793a9043f903426cd1b25b864736f6c63430008110033",
  "linkReferences": {},
  "deployedLinkReferences": {}
}